S010000077324031315F31322E7372656307
S11300000C942A000C943F000C943F000C943F0085
S11300100C943F000C943F000C943F000C943F0060
S11300200C943F000C943F000C943F000C943F0050
S11300300C943F000C943F000C943F000C943F0040
S11300400C943F000C943F000C943F000C943F0030
S11300500C943F0011241FBECFE5D8E0DEBFCDBF16
S113006010E0A0E6B0E0EEEBF7E002C005900D92E0
S1130070A038B107D9F70E940B030C94DD030C944C
S11300800000813021F050F0823079F014C087B143
S11300908F7B87B987B18F7787B90DC087B18064AB
S11300A087B987B18F7787B906C087B1806487B96C
S11300B087B1806887B987B18F7D87B986B18F7D15
S11300C086B986B1877F86B986B1816086B986B1E3
S11300D0826086B986B1846086B986B1806886B943
S11300E0089561157105A9F0803298F497B1907E56
S11300F097B997B1892B87B986B1806486B9349B47
S1130100FECF86B1806186B984B195B1FB0191833C
S113011080830895813019F130F08230E1F1833029
S113012009F455C00895442319F0413069F0089545
S11301302AB381E090E002C0880F991F6A95E2F724
S1130140809582238ABB08952AB381E090E002C09F
S1130150880F991F6A95E2F7822B8ABB089544237E
S113016019F0413069F0089527B381E090E002C0AE
S1130170880F991F6A95E2F78095822387BB0895BB
S113018027B381E090E002C0880F991F6A95E2F7D7
S1130190822B87BB0895442319F0413069F00895F8
S11301A024B381E090E002C0880F991F6A95E2F7BA
S11301B08095822384BB089524B381E090E002C03B
S11301C0880F991F6A95E2F7822B84BB0895442314
S11301D019F0413069F0089521B381E090E002C044
S11301E0880F991F6A95E2F78095822381BB089551
S11301F021B381E090E002C0880F991F6A95E2F76D
S1130200822B81BB0895813019F130F08230E1F105
S1130210833009F455C00895442319F0413069F03E
S113022008952BB381E090E002C0880F991F6A956E
S1130230E2F7809582238BBB08952BB381E090E095
S113024002C0880F991F6A95E2F7822B8BBB089531
S1130250442319F0413069F0089528B381E090E017
S113026002C0880F991F6A95E2F78095822388BBA4
S1130270089528B381E090E002C0880F991F6A9521
S1130280E2F7822B88BB0895442319F0413069F0CA
S1130290089525B381E090E002C0880F991F6A9504
S11302A0E2F78095822385BB089525B381E090E031
S11302B002C0880F991F6A95E2F7822B85BB0895C7
S11302C0442319F0413069F0089522B381E090E0AD
S11302D002C0880F991F6A95E2F78095822382BB3A
S11302E0089522B381E090E002C0880F991F6A95B7
S11302F0E2F7822B82BB0895CF93C82F482F417019
S113030064E080E00E940301C1FB442740F965E0FA
S113031080E00E940301C2FB442740F966E080E0CC
S11303200E940301C3FB442740F967E080E00E9478
S11303300301CF91089541E063E081E00E9403014D
S11303408FE99FE00197F1F700C0000040E063E00F
S113035081E00E9403010895CF93C82F40E062E03A
S113036081E00E94030140E061E081E00E9403011A
S11303708C2F82958F700E947C010E949B018C2F90
S11303800E947C010E949B01CF91089541E064E0AA
S113039080E00E948A0041E065E080E00E948A00DB
S11303A041E066E080E00E948A0041E067E080E08E
S11303B00E948A0041E062E081E00E948A0041E0FC
S11303C061E081E00E948A0041E063E081E00E94F4
S11303D08A002FEF83EF91E0215080409040E1F7B5
S11303E000C0000040E062E081E00E94030140E0C0
S11303F061E081E00E94030182E00E947C010E948E
S11304009B0188E20E94AC0120EF2A95F1F78FE06E
S11304100E94AC0180EF8A95F1F781E00E94AC0163
S11304208FE39FE10197F1F700C0000086E00E948E
S1130430AC010895CF93C82F40E062E081E00E94B0
S1130440030141E061E081E00E9403018C2F829569
S11304508F700E947C010E949B018C2F0E947C0162
S11304600E949B01CF9108950F931F93CF93009700
S113047029F40CC00E941A02CF5F02C08C01C0E0B4
S1130480F801EC0FF11D80818111F4CFCF911F9100
S11304900F910895CF92DF92EF92FF920F931F93E3
S11304A08B019C01672B682B692B49F580E30E9423
S11304B01A0245C0DC01CB01880F991FAA1FBB1F7C
S11304C06C017D01CC0CDD1CEE1CFF1CCC0CDD1C76
S11304D0EE1CFF1CC80ED91EEA1EFB1EC901B80182
S11304E02AE030E040E050E00E94AC036C0D7D1D3A
S11304F08E1D9F1D022F132F242F352F04C061E062
S113050070E080E090E0011511052105310591F6B8
S11305102AE030E040E050E00E94AC03E22EF32EEB
S1130520042F152F80E3860F0E941A026E2D7F2D53
S1130530802F912F613071058105910549F71F9135
S11305400F91FF90EF90DF90CF90089581E00E948B
S1130550AC018FE39FE10197F1F700C0000008951B
S113056041E00E948A000895442319F0413029F0A3
S1130570089541E00E940301089540E00E940301B0
S11305800895442319F0413029F0089540E00E9471
S11305900301089541E00E940301089540E0682F9B
S11305A080E00E948A0082E00E94410008950F9337
S11305B01F93CF93DF9300D0CDB7DEB761157105DC
S11305C019F18B01BE016F5F7F4F0E947100298179
S11305D03A81A0E0BAE00E94CE039B01AC01012E57
S11305E01AE056954795379527951A95D1F7102D0A
S11305F0ADECBCEC0E94CE039695879596958795B5
S113060096958795F80180830F900F90DF91CF9195
S11306101F910F910895CF93DF931F92CDB7DEB74B
S113062080E00E94CE020E94C60162E082E00E9445
S1130630B00267E082E00E94B00263E083E00E94BF
S1130640B00263E080E00E94B00280E690E00E9485
S113065034022FEF83ED90E3215080409040E1F786
S113066000C000000E94A602BE016F5F7F4F80E0C1
S11306700E94D70285E790E00E943402698170E00D
S113068080E090E00E944A0289818F30A8F440E023
S113069062E082E00E94B40240E067E082E00E94EF
S11306A0C10240E063E083E00E94C10240E063E0F5
S11306B080E00E94C10244C08931A8F440E062E0B5
S11306C082E00E94C10240E067E082E00E94B4023E
S11306D040E063E083E00E94C10240E063E080E028
S11306E00E94C1022DC08332A8F440E062E082E09F
S11306F00E94C10240E067E082E00E94C10240E043
S113070063E083E00E94B40240E063E080E00E9482
S1130710C10216C08333A0F440E062E082E00E948C
S1130720C10240E067E082E00E94C10240E063E071
S113073083E00E94C10240E063E080E00E94B402D2
S11307402FEF83ED90E3215080409040E1F700C00B
S113075000000E94A60288CFA1E21A2EAA1BBB1B8E
S1130760FD010DC0AA1FBB1FEE1FFF1FA217B30779
S1130770E407F50720F0A21BB30BE40BF50B661F8F
S1130780771F881F991F1A9469F760957095809553
S113079090959B01AC01BD01CF010895A29FB001CA
S11307A0B39FC001A39F700D811D1124911DB29FA1
S11107B0700D811D1124911D0895F894FFCF42
S11307BE4175746F2E205765617468657220537984
S11307CE7374656D0054656D702E2069733A200044
S9030000FC
